{
  "_format": "hh-sol-artifact-1",
  "contractName": "TokenPaymaster",
  "sourceName": "contracts/paymasters/TokenPaymaster.sol",
  "abi": [
    {
      "inputs": [
        {
          "internalType": "contract IEntryPoint",
          "name": "_entryPoint",
          "type": "address"
        },
        {
          "internalType": "contract IERC20",
          "name": "_wrappedNative",
          "type": "address"
        },
        {
          "internalType": "contract ILuminexRouterV1",
          "name": "_luminexRouterV1",
          "type": "address"
        },
        {
          "internalType": "contract IPrivateWrapperFactory",
          "name": "_privateWrapperFactory",
          "type": "address"
        },
        {
          "components": [
            {
              "internalType": "uint48",
              "name": "refundPostopCost",
              "type": "uint48"
            },
            {
              "internalType": "uint256",
              "name": "minSwapAmount",
              "type": "uint256"
            }
          ],
          "internalType": "struct TokenPaymaster.TokenPaymasterConfig",
          "name": "_tokenPaymasterConfig",
          "type": "tuple"
        },
        {
          "internalType": "address",
          "name": "_owner",
          "type": "address"
        }
      ],
      "stateMutability": "nonpayable",
      "type": "constructor"
    },
    {
      "anonymous": false,
      "inputs": [
        {
          "components": [
            {
              "internalType": "uint48",
              "name": "refundPostopCost",
              "type": "uint48"
            },
            {
              "internalType": "uint256",
              "name": "minSwapAmount",
              "type": "uint256"
            }
          ],
          "indexed": false,
          "internalType": "struct TokenPaymaster.TokenPaymasterConfig",
          "name": "tokenPaymasterConfig",
          "type": "tuple"
        }
      ],
      "name": "ConfigUpdated",
      "type": "event"
    },
    {
      "anonymous": false,
      "inputs": [
        {
          "indexed": true,
          "internalType": "address",
          "name": "previousOwner",
          "type": "address"
        },
        {
          "indexed": true,
          "internalType": "address",
          "name": "newOwner",
          "type": "address"
        }
      ],
      "name": "OwnershipTransferred",
      "type": "event"
    },
    {
      "anonymous": false,
      "inputs": [
        {
          "indexed": true,
          "internalType": "address",
          "name": "sender",
          "type": "address"
        },
        {
          "indexed": false,
          "internalType": "uint256",
          "name": "value",
          "type": "uint256"
        }
      ],
      "name": "Received",
      "type": "event"
    },
    {
      "anonymous": false,
      "inputs": [
        {
          "indexed": true,
          "internalType": "address",
          "name": "user",
          "type": "address"
        },
        {
          "indexed": false,
          "internalType": "address",
          "name": "token",
          "type": "address"
        },
        {
          "indexed": false,
          "internalType": "uint256",
          "name": "actualTokenCharge",
          "type": "uint256"
        },
        {
          "indexed": false,
          "internalType": "uint256",
          "name": "actualGasCost",
          "type": "uint256"
        }
      ],
      "name": "UserOperationSponsored",
      "type": "event"
    },
    {
      "inputs": [
        {
          "internalType": "address",
          "name": "token",
          "type": "address"
        }
      ],
      "name": "addERC20Support",
      "outputs": [],
      "stateMutability": "nonpayable",
      "type": "function"
    },
    {
      "inputs": [
        {
          "internalType": "uint32",
          "name": "unstakeDelaySec",
          "type": "uint32"
        }
      ],
      "name": "addStake",
      "outputs": [],
      "stateMutability": "payable",
      "type": "function"
    },
    {
      "inputs": [],
      "name": "autoRefill",
      "outputs": [
        {
          "internalType": "bool",
          "name": "",
          "type": "bool"
        }
      ],
      "stateMutability": "view",
      "type": "function"
    },
    {
      "inputs": [],
      "name": "countTokenSupport",
      "outputs": [
        {
          "internalType": "uint256",
          "name": "",
          "type": "uint256"
        }
      ],
      "stateMutability": "view",
      "type": "function"
    },
    {
      "inputs": [],
      "name": "deposit",
      "outputs": [],
      "stateMutability": "payable",
      "type": "function"
    },
    {
      "inputs": [],
      "name": "entryPoint",
      "outputs": [
        {
          "internalType": "contract IEntryPoint",
          "name": "",
          "type": "address"
        }
      ],
      "stateMutability": "view",
      "type": "function"
    },
    {
      "inputs": [
        {
          "internalType": "address",
          "name": "token",
          "type": "address"
        },
        {
          "internalType": "uint256",
          "name": "amountIn",
          "type": "uint256"
        }
      ],
      "name": "estimateNativeToToken",
      "outputs": [
        {
          "internalType": "uint256",
          "name": "amountOut",
          "type": "uint256"
        }
      ],
      "stateMutability": "view",
      "type": "function"
    },
    {
      "inputs": [
        {
          "internalType": "address",
          "name": "token",
          "type": "address"
        },
        {
          "internalType": "uint256",
          "name": "amountIn",
          "type": "uint256"
        }
      ],
      "name": "estimateTokenToNative",
      "outputs": [
        {
          "internalType": "uint256",
          "name": "amountOut",
          "type": "uint256"
        }
      ],
      "stateMutability": "view",
      "type": "function"
    },
    {
      "inputs": [],
      "name": "getDeposit",
      "outputs": [
        {
          "internalType": "uint256",
          "name": "",
          "type": "uint256"
        }
      ],
      "stateMutability": "view",
      "type": "function"
    },
    {
      "inputs": [],
      "name": "getListTokenSupport",
      "outputs": [
        {
          "internalType": "address[]",
          "name": "result",
          "type": "address[]"
        }
      ],
      "stateMutability": "view",
      "type": "function"
    },
    {
      "inputs": [
        {
          "internalType": "address",
          "name": "token",
          "type": "address"
        }
      ],
      "name": "handleRefill",
      "outputs": [],
      "stateMutability": "nonpayable",
      "type": "function"
    },
    {
      "inputs": [
        {
          "internalType": "uint256",
          "name": "",
          "type": "uint256"
        }
      ],
      "name": "listTokenSupport",
      "outputs": [
        {
          "internalType": "address",
          "name": "",
          "type": "address"
        }
      ],
      "stateMutability": "view",
      "type": "function"
    },
    {
      "inputs": [],
      "name": "luminexRouterV1",
      "outputs": [
        {
          "internalType": "address",
          "name": "",
          "type": "address"
        }
      ],
      "stateMutability": "view",
      "type": "function"
    },
    {
      "inputs": [
        {
          "internalType": "uint256",
          "name": "",
          "type": "uint256"
        }
      ],
      "name": "ordinalToToken",
      "outputs": [
        {
          "internalType": "address",
          "name": "",
          "type": "address"
        }
      ],
      "stateMutability": "view",
      "type": "function"
    },
    {
      "inputs": [],
      "name": "owner",
      "outputs": [
        {
          "internalType": "address",
          "name": "",
          "type": "address"
        }
      ],
      "stateMutability": "view",
      "type": "function"
    },
    {
      "inputs": [
        {
          "internalType": "enum IPaymaster.PostOpMode",
          "name": "mode",
          "type": "uint8"
        },
        {
          "internalType": "bytes",
          "name": "context",
          "type": "bytes"
        },
        {
          "internalType": "uint256",
          "name": "actualGasCost",
          "type": "uint256"
        }
      ],
      "name": "postOp",
      "outputs": [],
      "stateMutability": "nonpayable",
      "type": "function"
    },
    {
      "inputs": [],
      "name": "privateWrapperFactory",
      "outputs": [
        {
          "internalType": "address",
          "name": "",
          "type": "address"
        }
      ],
      "stateMutability": "view",
      "type": "function"
    },
    {
      "inputs": [
        {
          "internalType": "address",
          "name": "token",
          "type": "address"
        }
      ],
      "name": "removeERC20Support",
      "outputs": [],
      "stateMutability": "nonpayable",
      "type": "function"
    },
    {
      "inputs": [],
      "name": "renounceOwnership",
      "outputs": [],
      "stateMutability": "nonpayable",
      "type": "function"
    },
    {
      "inputs": [
        {
          "internalType": "bool",
          "name": "_autoRefill",
          "type": "bool"
        }
      ],
      "name": "setAutoRefill",
      "outputs": [],
      "stateMutability": "nonpayable",
      "type": "function"
    },
    {
      "inputs": [
        {
          "components": [
            {
              "internalType": "uint48",
              "name": "refundPostopCost",
              "type": "uint48"
            },
            {
              "internalType": "uint256",
              "name": "minSwapAmount",
              "type": "uint256"
            }
          ],
          "internalType": "struct TokenPaymaster.TokenPaymasterConfig",
          "name": "_tokenPaymasterConfig",
          "type": "tuple"
        }
      ],
      "name": "setTokenPaymasterConfig",
      "outputs": [],
      "stateMutability": "nonpayable",
      "type": "function"
    },
    {
      "inputs": [],
      "name": "tokenPaymasterConfig",
      "outputs": [
        {
          "internalType": "uint48",
          "name": "refundPostopCost",
          "type": "uint48"
        },
        {
          "internalType": "uint256",
          "name": "minSwapAmount",
          "type": "uint256"
        }
      ],
      "stateMutability": "view",
      "type": "function"
    },
    {
      "inputs": [
        {
          "internalType": "address",
          "name": "",
          "type": "address"
        }
      ],
      "name": "tokenSupport",
      "outputs": [
        {
          "internalType": "bool",
          "name": "",
          "type": "bool"
        }
      ],
      "stateMutability": "view",
      "type": "function"
    },
    {
      "inputs": [
        {
          "internalType": "address",
          "name": "",
          "type": "address"
        }
      ],
      "name": "tokenToOrdinal",
      "outputs": [
        {
          "internalType": "uint256",
          "name": "",
          "type": "uint256"
        }
      ],
      "stateMutability": "view",
      "type": "function"
    },
    {
      "inputs": [],
      "name": "totalToken",
      "outputs": [
        {
          "internalType": "uint256",
          "name": "",
          "type": "uint256"
        }
      ],
      "stateMutability": "view",
      "type": "function"
    },
    {
      "inputs": [
        {
          "internalType": "address",
          "name": "newOwner",
          "type": "address"
        }
      ],
      "name": "transferOwnership",
      "outputs": [],
      "stateMutability": "nonpayable",
      "type": "function"
    },
    {
      "inputs": [],
      "name": "unlockStake",
      "outputs": [],
      "stateMutability": "nonpayable",
      "type": "function"
    },
    {
      "inputs": [
        {
          "components": [
            {
              "internalType": "address",
              "name": "sender",
              "type": "address"
            },
            {
              "internalType": "uint256",
              "name": "nonce",
              "type": "uint256"
            },
            {
              "internalType": "bytes",
              "name": "initCode",
              "type": "bytes"
            },
            {
              "internalType": "bytes",
              "name": "callData",
              "type": "bytes"
            },
            {
              "internalType": "uint256",
              "name": "callGasLimit",
              "type": "uint256"
            },
            {
              "internalType": "uint256",
              "name": "verificationGasLimit",
              "type": "uint256"
            },
            {
              "internalType": "uint256",
              "name": "preVerificationGas",
              "type": "uint256"
            },
            {
              "internalType": "uint256",
              "name": "maxFeePerGas",
              "type": "uint256"
            },
            {
              "internalType": "uint256",
              "name": "maxPriorityFeePerGas",
              "type": "uint256"
            },
            {
              "internalType": "bytes",
              "name": "paymasterAndData",
              "type": "bytes"
            },
            {
              "internalType": "bytes",
              "name": "signature",
              "type": "bytes"
            }
          ],
          "internalType": "struct UserOperation",
          "name": "userOp",
          "type": "tuple"
        },
        {
          "internalType": "bytes32",
          "name": "userOpHash",
          "type": "bytes32"
        },
        {
          "internalType": "uint256",
          "name": "maxCost",
          "type": "uint256"
        }
      ],
      "name": "validatePaymasterUserOp",
      "outputs": [
        {
          "internalType": "bytes",
          "name": "context",
          "type": "bytes"
        },
        {
          "internalType": "uint256",
          "name": "validationData",
          "type": "uint256"
        }
      ],
      "stateMutability": "nonpayable",
      "type": "function"
    },
    {
      "inputs": [
        {
          "internalType": "address payable",
          "name": "recipient",
          "type": "address"
        },
        {
          "internalType": "uint256",
          "name": "amount",
          "type": "uint256"
        }
      ],
      "name": "withdrawEth",
      "outputs": [],
      "stateMutability": "nonpayable",
      "type": "function"
    },
    {
      "inputs": [
        {
          "internalType": "address payable",
          "name": "withdrawAddress",
          "type": "address"
        },
        {
          "internalType": "uint256",
          "name": "amount",
          "type": "uint256"
        }
      ],
      "name": "withdrawEthFromEntryPoint",
      "outputs": [],
      "stateMutability": "nonpayable",
      "type": "function"
    },
    {
      "inputs": [
        {
          "internalType": "address payable",
          "name": "withdrawAddress",
          "type": "address"
        }
      ],
      "name": "withdrawStake",
      "outputs": [],
      "stateMutability": "nonpayable",
      "type": "function"
    },
    {
      "inputs": [
        {
          "internalType": "address payable",
          "name": "withdrawAddress",
          "type": "address"
        },
        {
          "internalType": "uint256",
          "name": "amount",
          "type": "uint256"
        }
      ],
      "name": "withdrawTo",
      "outputs": [],
      "stateMutability": "nonpayable",
      "type": "function"
    },
    {
      "inputs": [
        {
          "internalType": "contract IERC20",
          "name": "token",
          "type": "address"
        },
        {
          "internalType": "address",
          "name": "to",
          "type": "address"
        },
        {
          "internalType": "uint256",
          "name": "amount",
          "type": "uint256"
        }
      ],
      "name": "withdrawToken",
      "outputs": [],
      "stateMutability": "nonpayable",
      "type": "function"
    },
    {
      "inputs": [],
      "name": "wrappedNative",
      "outputs": [
        {
          "internalType": "address",
          "name": "",
          "type": "address"
        }
      ],
      "stateMutability": "view",
      "type": "function"
    },
    {
      "stateMutability": "payable",
      "type": "receive"
    }
  ],
  "bytecode": "0x610100346200028657601f6200249338819003918201601f1916830192916001600160401b039190828511848610176200028b57808492604096875283398101039060e08212620002865782516001600160a01b03938482168203620002865760208101518581168091036200028657868201519386851680950362000286576060830151958787168097036200028657607f190188136200028657875190818901908111828210176200028b57885260808301519165ffffffffffff9283811681036200028657825260c060a0850151946020840195865201519788169687890362000286577f255fdef0fddc5529a1b63a91df1b4b9621b51dbff15ca57dbd57bd9022ca2ff9968a966200011533620002fa565b60805260c05260a05260e05260ff196007541660075562000135620002a1565b5116908165ffffffffffff19600854161760085580516009558251918252516020820152a162000164620002a1565b1562000233576200017590620002fa565b5161215190816200034282396080518181816107210152818161082f015281816108dc0152818161095601528181610b29015281816110870152818161125f015281816112da015281816117840152611b44015260a051818181610e12015281816118dc01528181611e7b015261201e015260c051818181610ae501528181611a040152611f2c015260e0518181816103640152818161066701528181610d10015281816116e101528181611e520152818161207701526120ef0152f35b815162461bcd60e51b815260206004820152602660248201527f4f776e61626c653a206e6577206f776e657220697320746865207a65726f206160448201526564647265737360d01b6064820152608490fd5b600080fd5b634e487b7160e01b600052604160045260246000fd5b6000546001600160a01b03163303620002b657565b606460405162461bcd60e51b815260206004820152602060248201527f4f776e61626c653a2063616c6c6572206973206e6f7420746865206f776e65726044820152fd5b600080546001600160a01b039283166001600160a01b03198216811783559216907f8be0079c531659141344cd1fd0a4f28419497f9722a3daafe3b4186f6b6457e09080a356fe604060808152600480361015610048575b50361561001c57600080fd5b513481527f88a5966d370b9919b20f3e2c13ff65706f196a4e32cc2c12bf57088f8852587460203392a2005b600090813560e01c90816301e33667146110e25781630396cb6014611055578163065c20c81461102357816307d5996714610fca5781631b9a91a414610f3f578163205c287814610edb57816330be153b14610f085781635812000614610edb578163626be56714610ebc578163715018a614610e555781637cad179014610e365781638d3139b414610df25781638da5cb5b14610dcc578163a2e48c1914610daa578163a9a2340914610c3f578163ae6fb4f814610b4d578163b0d691fe14610b09578163b649e07014610ac5578163b9d2df61146109a4578163bb9fe6bf14610930578163c23a5cea146108ac578163c399ec88146107fb578163ca56b1e0146107c4578163cb721cfd14610797578163d0e30db014610708578163d9a3c81c146106df578163e7f319af146106af578163ea62e6061461068b578163eb6d3a1114610647578163f154343614610594578163f2fde38b146104a9578163f465c77e146102c4578163fdf397ee14610206575063fe80858c036100105790346102025760203660031901126102025760ff816020936001600160a01b036101ef611129565b1681526001855220541690519015158152f35b5080fd5b839150346102c05760203660031901126102c0576001600160a01b0361022a611129565b610232611347565b1690818452600160205260ff83852054161561027d578054801561026a57600019019055825260016020528120805460ff1916905580f35b634e487b7160e01b855260118252602485fd5b606490602084519162461bcd60e51b8352820152601160248201527f546f6b656e207761732072656d6f7665640000000000000000000000000000006044820152fd5b8280fd5b8383346104a657600319926060368501126102025780359067ffffffffffffffff82116102c0576101608282019583360301126102c0576103036112d0565b60085460e483013592610124019065ffffffffffff166103238288611650565b6034116104a2576024013560801c81101561045f57836103499102604435019187611650565b60481161045b576034013560601c906001600160a01b0392837f00000000000000000000000000000000000000000000000000000000000000001683146000146103f057506103ae90965b6103a9886103a183611683565b309086611697565b611683565b908551966020880152858701521660608501526080840152608083526103d3836111ba565b6103e68251938385948552840190611214565b9060208301520390f35b828652600160205260ff87872054161561041857506104126103ae9183611e1e565b96610394565b606490602088519162461bcd60e51b8352820152601160248201527f546f6b656e206e6f7420737570706f72740000000000000000000000000000006044820152fd5b8480fd5b855162461bcd60e51b8152602081850152601b60248201527f54504d3a20706f73744f704761734c696d697420746f6f206c6f7700000000006044820152606490fd5b8580fd5b80fd5b839150346102c05760203660031901126102c0576104c5611129565b906104ce611347565b6001600160a01b0380921692831561052b5750506000548273ffffffffffffffffffffffffffffffffffffffff19821617600055167f8be0079c531659141344cd1fd0a4f28419497f9722a3daafe3b4186f6b6457e0600080a380f35b906020608492519162461bcd60e51b8352820152602660248201527f4f776e61626c653a206e6577206f776e657220697320746865207a65726f206160448201527f64647265737300000000000000000000000000000000000000000000000000006064820152fd5b905082346102c057806003193601126102c05780519181830183811067ffffffffffffffff821117610632578252359165ffffffffffff808416840361045b577f255fdef0fddc5529a1b63a91df1b4b9621b51dbff15ca57dbd57bd9022ca2ff99382526020820191602435835261060a611347565b5116908165ffffffffffff19600854161760085580516009558251918252516020820152a180f35b604182634e487b7160e01b6000525260246000fd5b828434610202578160031936011261020257602090516001600160a01b037f0000000000000000000000000000000000000000000000000000000000000000168152f35b82843461020257816003193601126102025760209060ff6007541690519015158152f35b8284346102025780600319360112610202576020906106d86106cf611129565b60243590611e1e565b9051908152f35b8284346102025780600319360112610202576020906106d86106ff611129565b60243590611fe1565b9050819282600319360112610793576001600160a01b037f00000000000000000000000000000000000000000000000000000000000000001691823b1561078e578390602483518095819363b760faf960e01b8352309083015234905af190811561078557506107755750f35b61077e90611190565b6104a65780f35b513d84823e3d90fd5b505050fd5b5050fd5b5050346104a657806003193601126104a6575065ffffffffffff6008541660095482519182526020820152f35b82843461020257602036600319011261020257806020926001600160a01b036107eb611129565b1681526002845220549051908152f35b8284346102025781600319360112610202578051926370a0823160e01b845230908401526020836024816001600160a01b037f0000000000000000000000000000000000000000000000000000000000000000165afa9182156108a15791610868575b6020925051908152f35b90506020823d8211610899575b81610882602093836111f2565b8101031261089457602091519061085e565b600080fd5b3d9150610875565b9051903d90823e3d90fd5b9050819234610793576020366003190112610793576108c9611129565b6108d1611347565b6001600160a01b03807f000000000000000000000000000000000000000000000000000000000000000016803b156104a2578592836024928651978895869463611d2e7560e11b865216908401525af190811561078557506107755750f35b905081923461079357826003193601126107935761094c611347565b6001600160a01b037f00000000000000000000000000000000000000000000000000000000000000001691823b1561078e57815163bb9fe6bf60e01b81529284918491829084905af190811561078557506107755750f35b839150346102c05760209081600319360112610ac1576001600160a01b036109ca611129565b6109d2611347565b16908185526001835260ff8486205416610a7e579060019291818652600283528486205415600014610a5f57610a0960055461139f565b9081600555610a18815461139f565b90558186526002835280858720558552600382528385208173ffffffffffffffffffffffffffffffffffffffff198254161790558452528120600160ff1982541617905580f35b610a69815461139f565b90558452528120805460ff1916600117905580f35b835162461bcd60e51b8152908101839052601160248201527f746f6b656e2077617320656e61626c65640000000000000000000000000000006044820152606490fd5b8380fd5b828434610202578160031936011261020257602090516001600160a01b037f0000000000000000000000000000000000000000000000000000000000000000168152f35b828434610202578160031936011261020257602090516001600160a01b037f0000000000000000000000000000000000000000000000000000000000000000168152f35b828434610202578160031936011261020257825492610b6b846113c4565b93610b78835195866111f2565b808552610b87601f19916113c4565b0192602093368587013760058054919290600184815b85811115610bbb57875189815280610bb7818c018d611153565b0390f35b8082526003808a526001600160a01b0390818a852054168452848b528460ff8b86205416151514610bf7575b5050610bf29061139f565b610b9d565b8284999399528a5288832054168a51821015610c2a5781610c22918b8d610bf295891b01015261139f565b96908b610be7565b603286634e487b7160e01b6000525260246000fd5b839150346102c05760603660031901126102c0576003813510156102c0576024359067ffffffffffffffff9081831161045b573660238401121561045b57820135908111610ac1578101366024820111610ac15760808260443592610ca26112d0565b0312610ac15760607f17ffde6359ce255c678a17b62fba7f276b9187996206563daaab42c2d836d67591602484013590610cde6044860161113f565b95610ceb6064870161113f565b9660846001600160a01b0380809316991697013565ffffffffffff60085416028301907f0000000000000000000000000000000000000000000000000000000000000000168814600014610d9a57925b8380821115610d7957610d509103878961140f565b8051928784526020840152820152a260ff60075416610d6d575080f35b610d76906116d6565b80f35b8110610d86575b50610d50565b610d9490840330888a611697565b88610d80565b610da49088611e1e565b92610d3b565b82346104a65760203660031901126104a657610d76610dc7611129565b6116d6565b8284346102025781600319360112610202576001600160a01b0360209254169051908152f35b828434610202578160031936011261020257602090516001600160a01b037f0000000000000000000000000000000000000000000000000000000000000000168152f35b839150346102c057826003193601126102c05760209250549051908152f35b82346104a657806003193601126104a657610e6e611347565b60006001600160a01b03815473ffffffffffffffffffffffffffffffffffffffff1981168355167f8be0079c531659141344cd1fd0a4f28419497f9722a3daafe3b4186f6b6457e08280a380f35b8284346102025781600319360112610202576020906005549051908152f35b828434610202573660031901126104a657610d76610ef7611129565b610eff611347565b60243590611254565b905034610202576020366003190112610202573580151580910361020257610f2e611347565b60ff80196007541691161760075580f35b905082346102c057806003193601126102c05782808080610f5e611129565b610f66611347565b6001600160a01b0360243591165af1610f7d611573565b5015610f87578280f35b906020606492519162461bcd60e51b8352820152600f60248201527f7769746864726177206661696c656400000000000000000000000000000000006044820152fd5b839150346102c05760203660031901126102c057356006548110156102c0576001600160a01b03906006602094527ff652222313e28459528d920b65115c16c04f3efc82aaedc97be59f3f377c0d3f0154169051908152f35b839150346102c05760203660031901126102c057816020936001600160a01b0392358152600385522054169051908152f35b90508260203660031901126102c05782823563ffffffff81168091036102025761107d611347565b6001600160a01b037f00000000000000000000000000000000000000000000000000000000000000001693843b156102c05760249084519586938492621cb65b60e51b845283015234905af190811561078557506110d9575080f35b610d7690611190565b90503461020257606036600319011261020257356001600160a01b039081811681036102c05760243591821682036102c057610d7691611120611347565b6044359161140f565b600435906001600160a01b038216820361089457565b35906001600160a01b038216820361089457565b90815180825260208080930193019160005b828110611173575050505090565b83516001600160a01b031685529381019392810192600101611165565b67ffffffffffffffff81116111a457604052565b634e487b7160e01b600052604160045260246000fd5b60a0810190811067ffffffffffffffff8211176111a457604052565b6060810190811067ffffffffffffffff8211176111a457604052565b90601f8019910116810190811067ffffffffffffffff8211176111a457604052565b919082519283825260005b848110611240575050826000602080949584010152601f8019910116010190565b60208183018101518483018201520161121f565b6001600160a01b03807f000000000000000000000000000000000000000000000000000000000000000016803b156108945760009283604492604051968795869463040b850f60e31b865216600485015260248401525af180156112c4576112b95750565b6112c290611190565b565b6040513d6000823e3d90fd5b6001600160a01b037f000000000000000000000000000000000000000000000000000000000000000016330361130257565b60405162461bcd60e51b815260206004820152601560248201527f53656e646572206e6f7420456e747279506f696e7400000000000000000000006044820152606490fd5b6001600160a01b0360005416330361135b57565b606460405162461bcd60e51b815260206004820152602060248201527f4f776e61626c653a2063616c6c6572206973206e6f7420746865206f776e65726044820152fd5b60001981146113ae5760010190565b634e487b7160e01b600052601160045260246000fd5b67ffffffffffffffff81116111a45760051b60200190565b8051156113e95760200190565b634e487b7160e01b600052603260045260246000fd5b8051600110156113e95760400190565b60405163a9059cbb60e01b60208201526001600160a01b039290921660248301526044808301939093529181526112c29161144b6064836111f2565b611468565b90816020910312610894575180151581036108945790565b6001600160a01b0316604051604081019181831067ffffffffffffffff8411176111a4576114d8926040526000806020958685527f5361666545524332303a206c6f772d6c6576656c2063616c6c206661696c656487860152868151910182855af16114d2611573565b916115b3565b80519082821592831561155b575b505050156114f15750565b6084906040519062461bcd60e51b82526004820152602a60248201527f5361666545524332303a204552433230206f7065726174696f6e20646964206e60448201527f6f742073756363656564000000000000000000000000000000000000000000006064820152fd5b61156b9350820181019101611450565b3882816114e6565b3d156115ae573d9067ffffffffffffffff82116111a457604051916115a2601f8201601f1916602001846111f2565b82523d6000602084013e565b606090565b9192901561161557508151156115c7575090565b3b156115d05790565b60405162461bcd60e51b815260206004820152601d60248201527f416464726573733a2063616c6c20746f206e6f6e2d636f6e74726163740000006044820152606490fd5b8251909150156116285750805190602001fd5b60405162461bcd60e51b81526020600482015290819061164c906024830190611214565b0390fd5b903590601e1981360301821215610894570180359067ffffffffffffffff82116108945760200191813603831361089457565b356001600160a01b03811681036108945790565b90926112c293604051936323b872dd60e01b60208601526001600160a01b03809216602486015216604484015260648301526064825261144b826111ba565b6001600160a01b03807f000000000000000000000000000000000000000000000000000000000000000016908083169282841460001461186c5750905060409182516370a0823160e01b8082523060048301526020918281602481875afa90811561186157600091611834575b5060095410611754575b5050505050565b8190602486518095819382523060048301525afa908115611829576000916117fa575b5061178291506120e5565b7f000000000000000000000000000000000000000000000000000000000000000016904791803b1561089457600090602483518095819363b760faf960e01b83523060048401525af19081156117f057506117e1575b8080808061174d565b6117ea90611190565b386117d8565b513d6000823e3d90fd5b82813d8311611822575b61180e81836111f2565b810103126104a65750611782905138611777565b503d611804565b84513d6000823e3d90fd5b908382813d831161185a575b61184a81836111f2565b810103126104a657505138611743565b503d611840565b86513d6000823e3d90fd5b6040918251936370a0823160e01b95868652600096600496308882015260209260249684838981855afa928315611d7b578b93611d46575b50826118af91611fe1565b600954106118c4575b50505050505050505050565b8751635a0f4c8d60e11b8082528a82018390529091907f0000000000000000000000000000000000000000000000000000000000000000881686848b81845afa938415611ca4578a89969594938f938f938f908c9698611d27575b5051988994859384528301525afa938415611d1d57908b92918d95611cee575b50868d8c5192838092816119778a8963095ea7b360e01b9b8c85528401602090939291936001600160a01b0360408201951681520152565b03925af18015611ca45790899291611cd1575b501690813b15611ccd578951629dd64160e51b8152808c018481523060208201528d9082908190604001038183875af18015611ca457611cae575b5082868b611a4d95948f8f908d968451976119df896111d6565b600289528536888b0137846119f38a6113dc565b526119fd896113ff565b9b16809b527f0000000000000000000000000000000000000000000000000000000000000000998a95519788968795869485528401602090939291936001600160a01b0360408201951681520152565b03925af18015611ca457928d8a8e611a988f968f978d869b98879b611c76575b505051998a98899788956338ed173960e01b875286015284015260a0604484015260a4830190611153565b3060648301524260848301520393165af18015611c4a57611c54575b508651828152308982015283818881855afa908115611c4a578a91611c1d575b50813b15611c19578751637647691d60e01b8152808a01918252306020830152918a9183919082908490829060400103925af18015611c0f578392918a91611bf2575b5050858751809581938252308b8301525afa908115611be8578791611bb8575b50611b4291506120e5565b7f000000000000000000000000000000000000000000000000000000000000000016904793823b156104a257908592918451958693849263b760faf960e01b845230908401525af19081156107855750611ba4575b80808080808080806118b8565b611bae8291611190565b6104a65780611b97565b905081813d8311611be1575b611bce81836111f2565b8101031261089457611b42905138611b37565b503d611bc4565b85513d89823e3d90fd5b611bfe91929350611190565b611c0b5781908838611b17565b8780fd5b87513d8b823e3d90fd5b8980fd5b90508381813d8311611c43575b611c3481836111f2565b81010312610894575138611ad4565b503d611c2a565b88513d8c823e3d90fd5b611c6f903d808c833e611c6781836111f2565b810190611da4565b5038611ab4565b81611c9592903d10611c9d575b611c8d81836111f2565b810190611450565b508d38611a6d565b503d611c83565b8b513d8f823e3d90fd5b92868b82948e9f611cc08d9698611190565b9f509495935050506119c5565b8b80fd5b611ce790883d8a11611c9d57611c8d81836111f2565b503861198a565b611d0f919550873d8911611d16575b611d0781836111f2565b810190611d85565b933861193f565b503d611cfd565b8a513d8e823e3d90fd5b611d3f919850863d8811611d1657611d0781836111f2565b963861191f565b9092508481813d8311611d74575b611d5e81836111f2565b81010312611d705751916118af6118a4565b8a80fd5b503d611d54565b89513d8d823e3d90fd5b9081602091031261089457516001600160a01b03811681036108945790565b60209081818403126108945780519067ffffffffffffffff821161089457019180601f84011215610894578251611dda816113c4565b93611de860405195866111f2565b818552838086019260051b820101928311610894578301905b828210611e0f575050505090565b81518152908301908301611e01565b91906040928351611e2e816111d6565b600281526020918536848401378551635a0f4c8d60e11b8082526001600160a01b037f000000000000000000000000000000000000000000000000000000000000000081166004840152957f000000000000000000000000000000000000000000000000000000000000000087169390928681602481885afa928315611fd65788958894602493600091611fb9575b5087611ec88a6113dc565b911690528b51998a94859384521660048301525afa8015611fae57611f28956000958692611f91575b505082611efd856113ff565b91169052865180958194829363d06ca61f60e01b845260048401528960248401526044830190611153565b03917f0000000000000000000000000000000000000000000000000000000000000000165afa908115611f8657611f69929350600091611f6d575b506113ff565b5190565b611f80913d8091833e611c6781836111f2565b38611f63565b83513d6000823e3d90fd5b611fa79250803d10611d1657611d0781836111f2565b3880611ef1565b87513d6000823e3d90fd5b611fd09150863d8811611d1657611d0781836111f2565b38611ebd565b8a513d6000823e3d90fd5b9190916040928351611ff2816111d6565b600281526020918536848401378551635a0f4c8d60e11b8082526001600160a01b0395861660048301527f000000000000000000000000000000000000000000000000000000000000000086169592919085826024818a5afa80156120da5786926000916120bd575b5084612066876113dc565b9116905260248951809881938252867f00000000000000000000000000000000000000000000000000000000000000001660048301525afa8015611fae57611f28956000958692611f9157505082611efd856113ff565b6120d49150833d8511611d1657611d0781836111f2565b3861205b565b89513d6000823e3d90fd5b6001600160a01b037f00000000000000000000000000000000000000000000000000000000000000001690813b1561089457600091602483926040519485938492632e1a7d4d60e01b845260048401525af180156112c4576112b9575056fea164736f6c6343000811000a",
  "linkReferences": {},
  "deployedLinkReferences": {}
}